:03000000020A12DF
:0C0A1200787FE4F6D8FD758121020A59B6
:100B52002A2A2A2A2A2A2A2A2A2A2048616E7465DF
:100B62006368202A2A2A2A2A2A2A2A2A2A0D0A00DD
:100B720073797374656D20496E69740D0A004C4572
:100B82004420546573740D0A0041543234433032A8
:080B920020496E69740D0A0090
:100A9E0042002E000042002C006442003200004250
:100AAE000030000042003A000142003E00004200C9
:100ABE0045000042003C000042004100004200435D
:100ACE000000420038000042002A000042003400BC
:0F0ADE00004200360000410040004200280000A6
:10054700120EB87BFF7A0B79521200997BFF7A0B58
:1005570079721200997BFF7A0B7980120099120E3B
:10056700FB1208CC120F0B7BFF7A0B798B120099C9
:100577001200037D647F02120D667F0A7E00120C53
:10058700357F02120CD690002CE4F0A3EFF0120E88
:1005970075120F5C120ECA900043E4F0A304F0C377
:1005A700900031E0940A900030E09400403AE4F083
:1005B700A3F0C2CA900043E0FEA3E0FFEE7029EF6C
:1005C70024FE600F14601114601B2403701A120BB1
:1005D7009A8015120CAF8010120AF8900032E4F0DE
:1005E700A3EFF08003120F28120EDB20CAB1900090
:1005F70043E0FEA3E0FFEE7036EF24FE60131460C5
:100607001C2402702A90002CE0FCA3E0FD7F0180EF
:100617001690003EE0FCA3E0FD7F02800A900032C6
:10062700E0FCA3E0FD7F037E0012073F0205A690D2
:100637000043E0FEA3E0FF900043E0FCA3E0FD12CF
:05064700073F0205A6BB
:100ECA0075CACE75CCCE75CBF875CDF8C2CAD2AD7F
:010EDA0022F5
:0C0F2800D2CAD2A67580FFC2A6D2A722B2
:0F0EDB00120393EFF46008900043E4F0A3EFF0EC
:010EEA0022E5
:100B9A0090002AE07004A3E06401703890002AF003
:100BAA00A3F07F02120CD690002CE0B40026A3E03A
:100BBA00B5072190002DE024FFF090002CE034FFCF
:100BCA00F07F0A7E00120C3590002CE0A3E0FD7F36
:050BDA0002120D66226D
:100CAF007F40120DE590003EE4F0A3EFF07F017E50
:100CBF0000120C3590003EE0A3E0FD7F40120E8E37
:070CCF007F017E00020C35DD
:03000B0002097572
:08097500C0E0C083C082C0D0C5
:10097D00758CDC758A06900031E004F070069000ED
:10098D0030E004F0900029E004F07006900028E0BB
:10099D0004F0900028E07004A3E06464705E9000A1
:1009AD0028F0A3F0A3F0A304F090002FE004F07062
:1009BD000690002EE004F0900034E4F0A304F0C3A0
:1009CD0090002FE0947890002EE094004004E4F025
:1009DD00A3F090003BE004F0700690003AE004F0C4
:1009ED00D390003BE0940490003AE094004005E47D
:0C09FD00F0A304F0900038E4F0A304F034
:090A0900D0D0D082D083D0E032BD
:03002B0002080EBA
:10080E00C0E0C083C082C0D075D008C2CF90004077
:10081E00E0B4080040030208C390082EF82828739D
:10082E000208460208560208660208760208860288
:10083E0008960208A60208B6C284D285D280D2815A
:10084E009000407401F0806DC284C285D280D28146
:10085E009000407402F0805DD284C285D280D28135
:10086E009000407403F0804DD284C285C280D28144
:10087E009000407404F0803DD284D285C280D28133
:10088E009000407405F0802DD284D285C280C28142
:10089E009000407406F0801DD284D285D280C28131
:1008AE009000407407F0800DC284D285D280C28140
:0E08BE00900040E4F0D0D0D082D083D0E03261
:100EA600E4FDFCC3ED9FEC9E50070DBD00010C80D8
:010EB600F249
:010EB7002218
:07000300D2A100D2A00022EF
:0D0F1B00D2A000D2A100C2A000C2A10022FD
:0A0F3400C2A000D2A100D2A000224A
:10000E00E4FEEF25E0FFC2A10092A000D2A1000EF7
:0A001E00EEB408EEC2A100D2A0006B
:0100280022B5
:100CFD00E4FEC2A100D2A0FD00D2A10030A0047F6D
:100D0D00018002E4FFEE25E04FFEC2A10DEDB40817
:040D1D00E700AF0636
:010D210022AF
:0B0D460012000E120D51AF0512000E3E
:100D5100E4FFD2A10030A009EFC394FF50030F803C
:040D6100F4C2A10037
:010D6500226B
:020CD600AD0768
:100CD800120F1B7FA0120D46120F1B7FA112000ED0
:100CE800120D51120CFDAB07120F347F0A7E001251
:040CF8000EA6AF0392
:010CFC0022D5
:100D6600AC07C2AF120F1B7FA012000E120D51AFBF
:100D760004120D46120F34D2AF7F327E00020EA649
:0A0AED0008100000000000000000E7
:060EEB00D2A27F087E0088
:0A0EF100EF1F70011E144E70F7226F
:100DC600120EEBC2A27F5A7E00120EF1120EEBA299
:0E0DD600A292007F647E00120EF1D2A2A20053
:010DE40022EC
:100E0400E4FC7D08C2A2ECC313FCD2A230A20344CA
:0D0E140080FC7F047E00120EF1DDE9AF04CA
:010E210022AE
:020E5B00AD07E1
:100E5D007B08C2A2ED1392A27F057E00120EF1D285
:070E6D00A2EDC313FDDBEB56
:010E7400225B
:100C5500AC05AA07120DC67FCC120E5B7F4E120E95
:100C65005BAF02120E5BAF04120E5B7F7F120E5B51
:0D0C7500120DC67FCC120E5B7F48020E5B95
:100E7500120DC67F33120E5BE4FB120E0474102BA9
:080E8500F8A6070BEBB408F21C
:010E8D002242
:100C8200E4FFFE74102EF8E6FDE4FCEF6D20E006B2
:100C9200EFC313FF8008EF6418C3134480FFEDC352
:0C0CA20013FD0CECB408E40EEEB408D70F
:010CAE002223
:100AF800120DC67FCC120E5B7F44120E5B120DC620
:100B08007F55120E5BE4FC74102CF8E6FF120E5BA6
:100B18000CECB408F27FBE120E5B120E04900000BB
:100B2800EFF0120E04A3EFF0120E04A3EFF0120E72
:100B380004A3EFF0900001E0540FC454F0FF9000BC
:090B480000E054F0C4540F4FFF0B
:010B51002281
:0A0F3E00D2A400D2A300C2A4002236
:0A0F4800C2A400D2A300D2A400222C
:080D8600120F3E7F90120E4097
:100D8E00D2A30030A40E900000E0C394FA5005E008
:070D9E0004F080EFC2A30086
:010DA500222B
:070F5C00D2A400D2A3002281
:100E2200C2A300D2A400E4FED2A300EF25E0FDA2FB
:0D0E3200A4E4334DFFC2A3000EEEB408EBA4
:010E3F002290
:100E4000E4FEEF25E0FFC2A30092A400D2A3000EAF
:0A0E5000EEB408EEC2A300D2A40025
:010E5A002275
:100E8E00AC07120D86AF04120E40120D8EAF051276
:080E9E000E40120D8E020F48F8
:020DE500AD0758
:100DE700120D86AF05120E40120D8E120F3E7F9127
:0C0DF700120E40120D8E120E22120F4838
:010E030022CC
:040D22007F057E00CB
:100D2600E4FDFCC3ED9FEC9E5015E4FBFA0BBB0003
:0F0D3600010AEB64724A70F50DBD00010C80E4F8
:010D4500228B
:1003930090000174FFF075B0FE900000E5B0F0E04E
:1003A30054F0F0900000E064F06055120D22E5B0C7
:1003B300F0E054F0F0900000E064F060E6E5B0F0A7
:1003C300E02482602424C0601824E0600C24F070D0
:1003D3001E9000017401F080169000017402F080F9
:1003E3000E9000017403F080069000017404F090F5
:1003F3000000E064F060BEE5B0F0E054F0F080EFA0
:1004030075B0FD900000E5B0F0E054F0F09000000E
:10041300E064F06055120D22E5B0F0E054F0F09086
:100423000000E064F060E6E5B0F0E024836024249B
:10043300C0601824E0600C24F0701E900001740565
:10044300F080169000017406F0800E90000174078E
:10045300F080069000017408F0900000E064F06002
:10046300BEE5B0F0E054F0F080EF75B0FB90000013
:10047300E5B0F0E054F0F0900000E064F060551255
:100483000D22E5B0F0E054F0F0900000E064F0607D
:10049300E6E5B0F0E02485602424C0601824E06021
:1004A3000C24F0701E9000017409F0801690000176
:1004B300740AF0800E900001740BF0800690000126
:1004C300740CF0900000E064F060BEE5B0F0E0541E
:1004D300F0F080EF75B0F7900000E5B0F0E054F075
:1004E300F0900000E064F06055120D22E5B0F0E0FA
:1004F30054F0F0900000E064F060E6E5B0F0E02432
:1005030089602424C0601824E0600C24F0701E90DD
:100513000001740DF08016900001740EF0800E90AF
:100523000001740FF080069000017410F090000039
:10053300E064F060BEE5B0F0E054F0F080EF9000CE
:0305430001E0FFD5
:010546002292
:100DA60000C000F900A400B000990092008200F88B
:100DB600008000900088008300C600A10086008E97
:100C2200E025E024A6F582E4340DF583740193F502
:030C320080C2A6D7
:100C3500E4FDFCC3ED9FEC9E5015E4FBFA0BBB00F5
:0F0C4500010AEB64724A70F50DBD00010C80E4EA
:010C5400227D
:100EB800759850758920758780758DFA758BFAD26B
:020EC8008E2278
:100EFB00D2A7E4F580C2A7F5907580557590FE22B8
:100F0B00438901758CDC758A06D2A9D28CD2AF22AB
:1008CC00900000E4F0A37407F0D2A67580FFC2A6D6
:1008DC00D2A7E4F580759055B2857FF47E01120C99
:1008EC00357590AAB285120C35759055B285120CDF
:1008FC00357590AAB285120C357590FFD2A6E4F529
:10090C0080C2A67FE87E03120C35120BDFD2A575D0
:10091C0090FFC2A5D2A77580FFC2A7D2A6E4F5802E
:10092C00C2A67FF47E01120C35D2A77580FFC2A738
:10093C00D2A67580FFC2A6120C35D2A77580FFC255
:10094C00A7D2A6E4120C31D2A77580FFC2A7D2A6FB
:10095C007580FFC2A6120C35D2A77580FFC2A7D234
:09096C00A6E4F580C2A6020C35D8
:100BDF0079028035AF0119EF6038C290C293C29687
:100BEF00C2B67FF47E01120C357590FFD2B6D2B724
:100BFF00C291C294C297C2B7120C357590FFD2B68C
:100C0F00D2B7C292C295120C357590FFD2B6D2B739
:020C1F0080C291
:010C210022B0
:0C073F00900000EEF0A3EFF0AB05AA0460
:10074B00900000E0FEA3E0FF7C007D0A12064C90B7
:10075B000000ECF0A3EDF07C007D64AF03AE021261
:10076B00064C7C007D0A12064CA3EDF07C007D64E8
:10077B00AF03AE0212064C7E007F0ACFCDCFCECC9C
:10078B00CE12064CA3EFF0AE02AF037C007D0A1233
:10079B00064CA905D2A7758001C2A7D2A69000016D
:1007AB00E025E0FF900000E033FE74A62FF5827485
:1007BB000D3EF583740193F580C2A67F017E001276
:1007CB000C35D2A7758004C2A7D2A6900002120CDA
:1007DB0022D2A7758008C2A7D2A6900003120C22C2
:1007EB00D2A7758010C2A7D2A6AF01EF25E024A631
:1007FB00F582E4340DF583740193F580C2A67F0175
:03080B00020C35A7
:0A0F5200AE078E993099FDC2992276
:100A1E00020547E493A3F8E493A34003F68001F2A2
:100A2E0008DFF48029E493A3F85407240CC8C333D9
:100A3E00C4540F4420C8834004F456800146F6DFA8
:100A4E00E4800B0102040810204080900A9EE47E90
:100A5E00019360BCA3FF543F30E509541FFEE4939D
:100A6E00A360010ECF54C025E060A840B8E493A364
:100A7E00FAE493A3F8E493A3C8C582C8CAC583CA8F
:100A8E00F0A3C8C582C8CAC583CADFE9DEE780BE47
:010AF70000FE
:10064C00BC000BBE0029EF8DF084FFADF022E4CC92
:10065C00F875F008EF2FFFEE33FEEC33FCEE9DEC5B
:10066C00984005FCEE9DFE0FD5F0E9E4CEFD22EDA1
:10067C00F8F5F0EE8420D21CFEADF075F008EF2FEB
:10068C00FFED33FD4007985006D5F0F222C398FDDC
:05069C000FD5F0EA2279
:10002E00E5182403F582E43400F583E005182290E8
:10003E000000300703900003E475F0011206F90288
:10004E0006A12000E97F2ED2008018EF540F2490D5
:10005E00D43440D4FF30040BEF24BFB41A00500345
:10006E002461FFE51960021519051CE51C700205D7
:10007E001B30070E900000E475F0011206F9EF0236
:10008E0006E7020F527403D2078003E4C207F51885
:10009E00900000120710E4F519F51BF51CE5196028
:1000AE00077F2012007180F5751AFFC201C200C2CF
:1000BE0002C203C205C206C20812003DFF700D3017
:1000CE0007057F00120082AF1CAE1B22B4255FC253
:1000DE00D5C20412003DFF24D0B40A00501A75F0A8
:1000EE000A781930D50508B6FF0106C6A426F620F3
:1000FE00D5047002D20380D924CFB41A00EF500475
:10010E00C2E5D204020283D20180C6D20080C0D2E0
:10011E000280BCD2D580BAD20580B47F2012007185
:10012E002002077401B5190040F112002EFF1200D3
:10013E00710200ABD208D206809512002EFB12007F
:10014E002EFA12002EF94A4B700679547A037BFF71
:10015E0020022EE519602A7E008E8275830012061B
:10016E00BA60060EEE651A70F0C2D5EBC0E0EAC0BA
:10017E00E0E9C0E0EE1202CAD0E0F9D0E0FAD0E039
:10018E00FB1206A1FF60AAEBC0E0EAC0E0E9C0E006
:10019E00120071D0E02401F9D0E03400FAD0E0FB77
:1001AE00E51A0460DCD51AD980877BFF7A0279C6FE
:1001BE00D202809C791080027908C206C20880089B
:1001CE00D2D5790A8004790AC2D5E51A047002F5EF
:1001DE001AE4FAFDFEFF12002EFC7B08200113121A
:1001EE00002EFD7B1030000A12002EFE12002EFF94
:1001FE007B20EC3382D592D55013C3E43000069F9A
:10020E00FFE49EFEE42001039DFDE49CFCE4CBF89C
:10021E00C201EC700CCFCECDCCE824F8F870F38090
:10022E0017C3EF33FFEE33FEED33FDEC33FCEB3350
:10023E00FB994002FB0FD8E9EB300105F8D0E0C482
:10024E0048B201C0E00AEC4D4E4F78207B0070C2E0
:10025E00EAB51A0040BCC0E01202CCD0F0D0E020CB
:10026E000104C4C0E0C4B201C0F012005AD0F0D5EF
:10027E00F0EB0200AB12071901485301C2580119E5
:10028E004C01154201C64F01CE4401CE49012E4309
:08029E0001D45501B84601B876
:1002A6004501B847037450011D2D01212E01442B31
:1002B600012523014220035D2A00DD480000013CA0
:1002C6003F3F3F00790AA2D5200314300509B91033
:1002D600020404B9080104A2D52006025001042034
:1002E60002689202B519005034C0E07F203003192D
:1002F6007F30A20272067205500F120323C202C299
:1003060006C205C2087F30800F300503E9C0E0123F
:100316000071300503D0E0F9D0E0B519CC300517EF
:100326007F30B9100C1200717F583004077F788037
:1003360003B908031200713002057F2D0200717F98
:10034600202008F87F2B2006F322920280CF286E09
:10035600756C6C2900D20112002E3001F8C20178AA
:100366001930D50108F60200DD2D50434958120018
:100376002E2403B405004001E490036F931200623B
:0D038600743A120062D2037519040201C21C
:1006A100BB010689828A83E0225002E722BBFE0257
:0906B100E32289828A83E493228A
:1006BA00BB010CE58229F582E5833AF583E02250F5
:1006CA0006E92582F8E622BBFE06E92582F8E2223F
:0D06DA00E58229F582E5833AF583E4932259
:1006E700BB010689828A83F0225002F722BBFE01F2
:0206F700F322EC
:1006F900F8E0FBA3A3E0F925F0F0E582158270028A
:070709001583E0FA38F0222D
:09071000EBF0A3EAF0A3E9F022EA
:10071900D083D082F8E4937012740193700DA3A36F
:1007290093F8740193F5828883E473740293686083
:06073900EFA3A3A380DF83
:00000001FF
