:100AD50000C000F900A400B000990092008200F85F
:100AE500008000900088008300C600A10086008E6B
:1009CB00420004000042000E0000420006000044FA
:1009DB00000800000000420002000042000C000072
:0509EB004200000000C5
:10030C00E4900006F0A3F0120A93C2AF900006E44A
:10031C00F0A304F0120AB4C2AF900006E4F0A37488
:10032C0002F07F647E0012097812084C120C6712DE
:10033C000C81120C8BD28E90000EE4F0A304F0C34F
:10034C00900005E0940A900004E094004049E4F029
:10035C00A3F090000EE0FEA3E0FFEE703AEF24FE57
:10036C0060161460252402702E900006E4F0A3742D
:10037C0002F0D28EC2A8801F900006E4F0A3740392
:10038C00F0C28EC2A8120C46800D900006E4F0A3B9
:10039C007404F0C28ED2A8120C5790000EE0FEA38B
:1003AC00E0FFEE703AEF24FE601714602024027018
:1003BC002E900008A3A3E0FEA3E0FDAC067F018015
:1003CC0016900002E0FCA3E0FD7F02800A90000C76
:1003DC00E0FCA3E0FD7F037E0012040102034B90BE
:1003EC00000EE0FEA3E0FF90000EE0FCA3E0FD1287
:0503FC00040102034BA7
:100A9300120BFC7FC87E00120978120BFC7FC87E04
:100AA30000120978120BFC7FC87E00120978020B32
:010AB300FC46
:100AB400C297C2947FBC7E02120978120BCD7FF4D8
:100AC4007E011209787F0212079B7FE87E030209E8
:010AD40078A9
:100C46001208DC900010E0FF900002E4F0A3EFF041
:010C5600227B
:0F0C5700120998EFF4600890000EE4F0A3EFF09C
:010C6600226B
:03000B00020210DE
:0D021000C0E0C0F0C083C082C0D075D0082F
:10021D00900006E07004A3E06401700CE510F58C0D
:10022D0085118AB294020301758CDC758A069000E3
:10023D0005E004F07006900004E004F0900001E089
:10024D0004F07006900000E004F090003BE004F034
:10025D00900000E07004A3E064326003020301909B
:10026D000000F0A3F0900006E07004A3E0640260CB
:10027D0003020301C28E900020E0F8A3E0F9A3E091
:10028D00FAA3E0FBAF8BE4FCFDFEEB2FFFEE3AFE95
:10029D00ED39FDEC38FC900020120105900020E0B6
:1002AD00F8A3E0F9A3E0FAA3E0FBAF8DEF7F00FE2A
:1002BD00E4FCFDEF2BFFEA3EFEED39FDEC38FC9042
:1002CD000020120105E47F02FEFDFC900020E0F805
:1002DD00A3E0F9A3E0FAA3E0FB1200B69000081228
:1002ED00010590002012011100000000758D0075B0
:0402FD008B00D28E12
:0B030100D0D0D082D083D0F0D0E0320A
:0A0C7700AE078E993099FDC2992254
:10096500E025E024D5F582E4340AF583740193F596
:0309750080C2A697
:10097800E4FDFCC3ED9FEC9E5015E4FBFA0BBB00B5
:0F098800010AEB64724A70F50DBD00010C80E4AA
:01099700223D
:100C6700758901758CDC758A06D2A9D28CD2AF2220
:03001B000207FDDC
:1007FD00C0E0C0F0C083C082C0D075D01890000694
:10080D00E07004A3E06401700B758DD8758BF01248
:10081D000A258020900020E0FCA3E0FDA3E0FEA3CC
:10082D00E02400FFE43EFEED3401FDE43CFC9000CD
:0F083D0020120105D0D0D082D083D0F0D0E0328D
:030003000208955B
:10089500C0E0C0F0C083C082C0D075D000C000C029
:0D08A50001C002C003C004C005C006C007AA
:0F08B200120611EFF4600890000CE4F0A3EFF0D1
:1008C100D007D006D005D004D003D002D001D0008B
:0B08D100D0D0D082D083D0F0D0E03235
:0C040100900034EEF0A3EFF0AB05AA046D
:10040D00900034E0FEA3E0FF7C007D0A12004B90CB
:10041D000034ECF0A3EDF07C007D64AF03AE02126E
:10042D00004B7C007D0A12004BA3EDF07C007D6437
:10043D00AF03AE0212004B7E007F0ACFCDCFCECCE4
:10044D00CE12004BA3EFF0AE02AF037C007D0A127B
:10045D00004BA905D2A7758001C2A7D2A690003581
:10046D00E025E0FF900034E033FE74D52FF5827463
:10047D000A3EF583740193F580C2A67F017E0012BA
:10048D000978D2A7758008C2A7D2A69000361209A6
:10049D0065D2A7758010C2A7D2A690003712096544
:1004AD00D2A7758020C2A7D2A6AF01EF25E024D533
:1004BD00F582E4340AF583740193F580C2A67F01B9
:0304CD00020978A9
:040A6F007F0A7E007C
:100A7300E4FDFCC3ED9FEC9E5015E4FBFA0BBB00B9
:0F0A8300010AEB64724A70F50DBD00010C80E4AE
:010A92002241
:1009980079FF20B40D120A6F20B402790120B42027
:1009A80080FB20B60D120A6F20B602790220B6101D
:1009B80080FB20B70B120A6F20B702790330B7FD0E
:0209C800AF017D
:0109CA00220A
:100BE70060304C30403033302B3024301C301830DC
:050BF700133010300076
:100AF500E4FDFCC3ED9FEC9E5015E4FBFA0BBB0037
:0F0B0500010AEB64724A70F50DBD00010C80E42B
:010B140022BE
:100B1500E4FDFCC3ED9FEC9E5015E4FBFA0BBB0016
:0F0B2500010AEB64034A70F50DBD00010C80E47A
:010B3400229E
:0D000E0075890175A882758CDCE4F58A22E5
:10072200E490003BF0EF75F0D9A4FF900039E5F0BA
:10073200F0A3EFF0900039E475F0011200A0FE740E
:10074200E725F0F582740B3EF583E493F9B4FF0BD1
:10075200C28C7F647E00120B1580D9E97001229051
:100762000039E475F0011200A0FE74E725F0F5826D
:10077200740B3EF583E493900038F0D28CB295E985
:10078200FF7E00120B1590003BE0FF900038E0B5B1
:0907920007EBE490003BF0809BB2
:100BFC00E4F97F017E00120AF5B29509E9B4B4F26A
:020C0C00D2957F
:010C0E0022C3
:1004D000020B024B029302BA0310037003DC0416F2
:1004E000049705260575062006E007B8082D095A69
:1004F0000A4D0AEA0C400DC00F6F0F020E100206E3
:1005000011063C0011020610020E0F063C00100CF2
:100510003C000000000000000F0232100232110205
:10052000320F02460F02321002321102320F02461F
:100530001002321102321302501002321102321331
:10054000026400000001021E02021E03021E0402D9
:100550001E05021E06021E07021E08021E09021EBA
:100560000A021E0B021E0C021E0D021E0E021E0FA0
:10057000021E10021E11021E12021E13021E14027F
:050580001E15021E0023
:10079B00D200E4F514EF24FE601C146028146034BE
:1007AB001460402404704A90002F74FFF0A374046B
:1007BB00F0A374FAF02290002F74FFF0A37405F0ED
:1007CB00A37404F02290002F74FFF0A37405F0A320
:1007DB00740EF02290002F74FFF0A37405F0A37435
:1007EB0018F02290002F74FFF0A37405F0A374454A
:0207FB00F022EA
:10069C0090002FE0FBA3E0FAA3E0F98514827583A8
:1006AC000012001E606885148275830012001E25DE
:1006BC00E024CEF582E43404F58374019325E0FF45
:1006CC00E49333AB07FAE4F9F87F407E427D0FFCEC
:1006DC00120921C374FF9FF51174FF9EF510E514E8
:1006EC002401FFE433FE90002FE0FBA3E0FAA3E02B
:1006FC00F98F828E8312001EF51285148275830089
:10070C00A3A312001EF51374032514F51422E4F5AB
:06071C0014D297C2002276
:100A250030001DE5126006C29715128002D297E5C7
:100A35001360051513D28C22C28C12069CC2972214
:050A4500C294C28C22E6
:100BCD00438911758CFF758AEF758DD8758BF0D2B1
:0A0BDD00A9D2ABC28CD28ED2AF2297
:100B3500E4FDFCC3ED9FEC9E5015E4FBFA0BBB00F6
:0F0B4500010AEB64724A70F50DBD00010C80E4EB
:010B5400227E
:100B5500E4FDFCC3ED9FEC9E5015E4FBFA0BBB00D6
:0F0B6500010AEB64724A70F50DBD00010C80E4CB
:010B7400225E
:0A0C8100438950D2ABD28ED2AF22CD
:0A09F00047001506031403154255D5
:0A09FB00A3E0FD120BB27F057E00A1
:100A0500E4FDFCC3ED9FEC9E5015E4FBFA0BBB0027
:0F0A1500010AEB64724A70F50DBD00010C80E41C
:010A240022AF
:100C0F007E08EF139292D2910000C291EFC313FFAF
:020C1F00DEF005
:010C210022B0
:100B9500E4FFFE7D08D292EEC313FEEF13FF309201
:0C0BA500034480FFD2910000C291DDE902
:010BB1002221
:100BB200C2930000C2910000D293120C0F0000AF4A
:0B0BC20005120C0FD2910000C293221C
:100A4A00C2930000C2910000D293120C0F120B95B0
:100A5A00D2910000C293EF540FFEEFC4540F75F009
:040A6A000AA42EFFAD
:010A6E002265
:10084C00E4FD7F8E1209FE900015E0FD7F8C1209ED
:10085C00FE7F881209FB7F861209FBA3E0FD7F8ACD
:10086C001209FEA3E0FD7F841209FEA3E0FD7F8246
:10087C001209FEA3E0FD7F801209FE7D807F8E129F
:09088C000BB27F057E00020A0593
:1008DC007F81120A4A900010EFF07F83120A4AA31C
:1008EC00EFF07F85120A4A90001FEFF07F8B120AFF
:1008FC004A900014EFF07F87120A4A90001EEFF026
:10090C007F89120A4A900012EFF07F8D120A4A90EA
:05091C00001CEFF022B9
:100B7500E4FDFCC3ED9FEC9E5015E4FBFA0BBB00B6
:0F0B8500010AEB64724A70F50DBD00010C80E4AB
:010B9400223E
:100C2200E4FDFCC3ED9FEC9E50070DBD00010C805E
:010C3200F2CF
:010C3300229E
:070C8B00C2A8D288D2AF22FB
:100C3400AD071FED600BE4FEEEC3940D50F20E8081
:010C4400F7B8
:010C4500228C
:10061100E4F97CFFC2A87F0F120C3430B205D2A8D6
:100621007FFF2220B2077F01120C3480F6E4FBE445
:10063100FA30B2077F01120C3480F620B2077F0135
:10064100120C3480F630B20E7F01120C3409E9C36A
:10065100941E40F1804074282BF582E43400F58328
:10066100E0C313F0E9C39408400E74282BF582E42B
:100671003400F583E04480F0E4F90AEAB408B20BEF
:10068100EBB404AB90002BE0F4FF90002AE0FE6F86
:0A06910060028002AC06D2A8AF049C
:01069B00223C
:0300000002058571
:0C058500787FE4F6D8FD7581200205CCDB
:10001E00BB010CE58229F582E5833AF583E0225097
:10002E0006E92582F8E622BBFE06E92582F8E222E1
:0D003E00E58229F582E5833AF583E49322FB
:10004B00BC000BBE0029EF8DF084FFADF022E4CC99
:10005B00F875F008EF2FFFEE33FEEC33FCEE9DEC62
:10006B00984005FCEE9DFE0FD5F0E9E4CEFD22EDA8
:10007B00F8F5F0EE8420D21CFEADF075F008EF2FF2
:10008B00FFED33FD4007985006D5F0F222C398FDE3
:05009B000FD5F0EA2280
:1000A000A3F8E0C5F025F0F0E58215827002158313
:0600B000E0C838F0E82270
:1000B600E88FF0A4CC8BF0A42CFCE98EF0A42CFCE9
:1000C6008AF0EDA42CFCEA8EF0A4CDA8F08BF0A467
:1000D6002DCC3825F0FDE98FF0A42CCD35F0FCEBC6
:1000E6008EF0A4FEA9F0EB8FF0A4CFC5F02ECD398B
:0F00F600FEE43CFCEAA42DCE35F0FDE43CFC22F8
:10092100C2D5E830E70FB2D5E4C39BFBE49AFAE401
:1009310099F9E498F8EC30E717B2D512095712018A
:100941007EE4C39BFBE49AFAE499F9E498F8800306
:1009510012017E30D50DE4C39FFFE49EFEE49DFDB0
:04096100E49CFC22F4
:0C010500ECF0A3EDF0A3EEF0A3EFF0226D
:10011100A8828583F0D083D082120128120128128F
:100121000128120128E473E493A3C583C5F0C583B4
:10013100C8C582C8F0A3C583C5F0C583C8C582C838
:01014100229B
:1005910002030CE493A3F8E493A34003F68001F271
:1005A10008DFF48029E493A3F85407240CC8C3336B
:1005B100C4540F4420C8834004F456800146F6DF3A
:1005C100E4800B01020408102040809009CBE47EF6
:1005D100019360BCA3FF543F30E509541FFEE4932F
:1005E100A360010ECF54C025E060A840B8E493A3F6
:1005F100FAE493A3F8E493A3C8C582C8CAC583CA21
:10060100F0A3C8C582C8CAC583CADFE9DEE780BED8
:0109FA0000FC
:1001420075F008758200EF2FFFEE33FECD33CDCC74
:1001520033CCC58233C5829BED9AEC99E5829840F7
:100162000CF582EE9BFEED9AFDEC99FC0FD5F0D6D4
:10017200E4CEFBE4CDFAE4CCF9A88222B800C1B9FE
:100182000059BA002DEC8BF084CFCECDFCE5F0CB3C
:10019200F97818EF2FFFEE33FEED33FDEC33FCEB75
:1001A20033FB10D703994004EB99FB0FD8E5E4F930
:1001B200FA227818EF2FFFEE33FEED33FDEC33FC1D
:1001C200C933C910D7059BE99A4007EC9BFCE99A11
:1001D200F90FD8E0E4C9FAE4CCFB2275F010EF2F56
:1001E200FFEE33FEED33FDCC33CCC833C810D70756
:1001F2009BEC9AE899400AED9BFDEC9AFCE899F891
:0E0202000FD5F0DAE4CDFBE4CCFAE4C8F92223
:00000001FF
